:020000040800F2
:10000000005000201103000861030008610300088C
:1000100000000000000000000000000000000000E0
:100020000000000000000000000000006103000864
:1000300000000000000000006103000861030008E8
:100040006103000861030008610300086103000800
:10005000610300086103000861030008C902000889
:1000600061030008610300086103000861030008E0
:1000700061030008610300086103000861030008D0
:10008000610300086103000861030008000000002C
:1000900061030008610300086103000861030008B0
:1000A00061030008610300086103000861030008A0
:1000B0006103000861030008610300086103000890
:1000C0000448054B10B5834203D0044B002B00D0ED
:1000D000984710BD0400002004000020000000002C
:1000E00006480749091A8B10C90FC91810B54910DD
:1000F00003D0044B002B00D0984710BD0400002013
:10010000040000200000000010B5074C2378002BED
:1001100009D1FFF7D5FF054B002B02D0044800E0C2
:1001200000BF0123237010BD040000200000000068
:1001300064030008054B10B5002B03D004490548A3
:1001400000E000BFFFF7CCFF10BDC046000000007C
:10015000080000206403000870B50C4D0C4E761B9F
:10016000B61005D0002408CD01349847A642FAD134
:1001700000F0F8F8074D084E761BB61005D00024A5
:1001800008CD01349847A642FAD170BD7C0300081F
:100190007C0300087C0300088003000810B584B0CD
:1001A0001C4BD96A01221143D962D96A0A400192D3
:1001B000019AD96A02221143D962D96A0A4002928D
:1001C000029AD96A04221143D962DB6A1A40039267
:1001D000039BA023DB058022D2001A6000225A6014
:1001E0009A60202159610C4B203119605A609A6045
:1001F00038395961094B1868094C20401860D96892
:100200002140D960D8688021C9040143D9601A60AF
:1002100004B010BD0010024000040050000800505F
:10022000FFFFFFF3134A536B01210B435363124B40
:100230005A69EF318A435A615A69E0390A435A616F
:100240000E4B1968802292011143196099680C487D
:1002500001409960D9680A43DA600A4AC1208000E7
:1002600013581B021B0AC02109060B43135080239D
:10027000136070470010024000000140000401407C
:10028000FFDFFFFF00E100E0704700000C4B1B6840
:10029000002B0AD0A023DB0520229A61094B183AD3
:1002A0009A61074B00221A607047A023DB052022C9
:1002B0009A62034B1F3A1A60024B07329A62F3E7C5
:1002C000000000200004005010B5074B5B69DB07FD
:1002D00000D410BD044A516980239B010B43536134
:1002E000FFF7D4FFF5E7C0460004014010B5FFF763
:1002F00055FFFFF797FF06E0C0460133034A9342DC
:10030000FAD9FFF7C3FF0023F8E7C0463F9C00007F
:100310000D488546FFF7B8FF0C480D490D4A0023EC
:1003200002E0D458C4500433C4188C42F9D30A4AAA
:100330000A4C002301E013600432A242FBD3FFF712
:100340000BFFFFF7D3FFFEE7005000200000002066
:100350000400002084030008040000202000002086
:10036000FEE70000F8B5C046F8BC08BC9E467047E2
:0C037000F8B5C046F8BC08BC9E467047BB
:04037C00350100083F
:040380000901000867
:040384000100000074
:0400000508000311DB
:00000001FF
